:020000040000FA
:10000000E8030020C9020000D1020000D302000072
:10001000D5020000D7020000D90200000000000055
:10002000000000000000000000000000DB020000F3
:10003000DD02000000000000DF0200001D4E000095
:10004000E3020000E5020000E7020000E902000010
:10005000EB020000C54F0000EF020000F1020000BB
:10006000F3020000F5020000F7020000F9020000B0
:10007000FB020000FD020000FF020000010300007F
:10008000030300000503000007030000854E000085
:100090000B030000D54E00000F0300001103000009
:1000A00013030000150300001703000019030000EC
:1000B0001B0300001D0300001F03000021030000BC
:1000C000230300002503000027030000290300008C
:1000D0002B0300002D0300002F030000310300005C
:1000E000330300003503000037030000390300002C
:1000F0003B0300003D0300003F03000041030000FC
:1001000043030000450300004703000049030000CB
:100110004B0300004D0300004F030000510300009B
:10012000530300005503000057030000590300006B
:100130005B0300005D0300005F030000610300003B
:1001400063030000650300006703000081030000F3
:100150000000000000000000830300008503000091
:100160008703000089030000000000008B030000EB
:100170008D0300008F030000910300009303000033
:100180009503000097030000990300009B03000003
:100190009D0300009F030000A1030000A3030000D3
:1001A000A5030000A7030000A9030000AB030000A3
:1001B000AD030000AF030000B1030000B303000073
:1001C000B5030000B7030000B9030000BB03000043
:1001D000BD030000BF030000C1030000C303000013
:1001E000C5030000C7030000C9030000CB030000E3
:1001F000CD030000CF030000D1030000D3030000B3
:1002000000F002F800F03CF80AA090E8000C8244EC
:100210008344AAF10107DA4501D100F031F8AFF2C9
:10022000090EBAE80F0013F0010F18BFFB1A43F0D4
:1002300001031847F85F000018600000103A24BF5F
:1002400078C878C1FAD8520724BF30C830C144BF3B
:1002500004680C607047000000230024002500267D
:10026000103A28BF78C1FBD8520728BF30C148BF19
:100270000B6070471FB505F019FA1FBD10B510BD12
:1002800000F0BBF81146FFF7F5FF05F059F900F053
:10029000D9F803B4FFF7F2FF03BC00F0E1F8000067
:1002A000EFF3108072B67047EFF310807047EFF3F2
:1002B000108062B6704730BF704780F31188704776
:1002C000EFF31180704700004548804745480047DC
:1002D000FEE7FEE7FEE7FEE7FEE7FEE7FEE7FEE7F6
:1002E000FEE7FEE7FEE7FEE7FEE7FEE7FEE7FEE7E6
:1002F000FEE7FEE7FEE7FEE7FEE7FEE7FEE7FEE7D6
:10030000FEE7FEE7FEE7FEE7FEE7FEE7FEE7FEE7C5
:10031000FEE7FEE7FEE7FEE7FEE7FEE7FEE7FEE7B5
:10032000FEE7FEE7FEE7FEE7FEE7FEE7FEE7FEE7A5
:10033000FEE7FEE7FEE7FEE7FEE7FEE7FEE7FEE795
:10034000FEE7FEE7FEE7FEE7FEE7FEE7FEE7FEE785
:10035000FEE7FEE7FEE7FEE7FEE7FEE7FEE7FEE775
:10036000FEE7FEE7FEE7FEE7FEE7FEE7FEE7FEE765
:10037000FEE7FEE7FEE7FEE7FEE7FEE7FEE7FEE755
:10038000FEE7FEE7FEE7FEE7FEE7FEE7FEE7FEE745
:10039000FEE7FEE7FEE7FEE7FEE7FEE7FEE7FEE735
:1003A000FEE7FEE7FEE7FEE7FEE7FEE7FEE7FEE725
:1003B000FEE7FEE7FEE7FEE7FEE7FEE7FEE7FEE715
:1003C000FEE7FEE7FEE7FEE7FEE7FEE7FEE7FEE705
:1003D000FEE7FEE704480549034A054B7047000065
:1003E000654E000001020000E8010020E803002043
:1003F000E8010020704770477047754600F02CF800
:10040000AE4605006946534620F00700854618B001
:1004100020B5FFF7DFFFBDE820404FF000064FF0AA
:1004200000074FF000084FF0000B21F00701AC4629
:10043000ACE8C009ACE8C009ACE8C009ACE8C00948
:100440008D46704710B50446AFF300802046BDE8E6
:100450001040FFF71EBF00000048704788010020D1
:1004600001491820ABBEFEE72600020070470000DD
:1004700010B51A48007898B11948007819490978D8
:1004800088420DD11848007818490978884207D168
:100490001748007817490978884201D1012000E007
:1004A000002004461CB900201349087010BD1348F1
:1004B000007888B91048007870B901200E4908709A
:1004C00001F08CFC01200D4908700D4800680D49B1
:1004D00008600DA004F032FF00BFE7E71D00002018
:1004E000100000201A000020110000201B00002036
:1004F000120000201C0000201F0000201E00002011
:100500000000002028000020234556543A414C4169
:10051000524D0D0A000000000D48007898B10D48BA
:1005200000780D49097888420DD10C4800780C49B3
:100530000978884207D10B4800780B49097888422E
:1005400001D1012000E00020084908707047000038
:100550001D000020100000201A00002011000020C3
:100560001B000020120000201C0000201F000020A3
:1005700070B52048006870B11F4800681D490968BF
:10058000401A08D400201B4908601C48007810B9A4
:10059000002000F05BF81948007800B970BD1648DB
:1005A000006817490968441A42F2107084420CD35B
:1005B000002012490870012012490870002000F044
:1005C00045F811A004F0BAFEE8E74FF4167000F009
:1005D00069F84FF47A70B4FBF0F100FB1140B0F50C
:1005E000FA7F01D2012000E00020054600F02EF83D
:1005F00000BFD3E72C000020000000201E000020D8
:10060000280000201F000020234556543A414C4149
:10061000524D5F4F46460D0A000000007047000033
:1006200010B5084804F0BCFB00BF064804F0CCFB42
:100630000028FAD02021044801F035F8002000F00D
:1006400005F810BD090800F00010064010B504467A
:100650000F480078A04200D110BD0D48047044B18D
:100660000C48008800F01EF8FF210B4804F094FCB1
:100670000BE0FF21084804F087FC002007490870C0
:1006800000222021064801F046F800BFE4E7000000
:100690002100002024000020000003402200002050
:1006A0000010064070B504461CB90020FFF7CEFFCD
:1006B00070BD08480480600007490968B1FBF0F587
:1006C000022D00D202256A1EFF21044804F071FCAD
:1006D00000BFEDE7240000200C00002000000340D4
:1006E0000146612904DB7A2902DCA1F12000C1B2B4
:1006F000302907DB392905DCA1F13000C0B2284AD6
:10070000105C704708464A2931D014DC442824D0B4
:1007100008DC2D283FD0412819D0422819D0432881
:100720003BD118E045281AD046281AD048281AD0BC
:10073000492832D119E04C380E282ED2DFE800F0DB
:10074000192D1B1D1F2D212325272D2D2D29772008
:10075000D7E77C20D5E73920D3E75E20D1E77920A1
:10076000CFE77120CDE77620CBE70620C9E71E2032
:10077000C7E73820C5E75420C3E73F20C1E773200F
:10078000BFE75020BDE76D20BBE77820B9E73E20EA
:10079000B7E76E20B5E74020B3E70020B1E70000DF
:1007A000B656000010B515480078401C1349087073
:1007B000084600783C2819D30020087010480078BB
:1007C000401C0F490870084600783C280ED30020D2
:1007D00008700C480078401C0A49087008460078E8
:1007E000182803D30020087000F026F800F05EFE01
:1007F000FFF73EFE00F0A8FD10BD00001200002033
:1008000011000020100000200246002101E0481CD9
:10081000C1B2505C20B10748405C535C9842F6D0AE
:10082000505C20B90348405C08B9012070470020A3
:10083000FCE70000E800002010B516480078401CD6
:1008400014490870144801781448008800F028F80A
:100850001049097888421BDA01200E4908700E48B9
:100860000078401C0C490870084600780C280FD905
:100870000120087009480088401C08490880084683
:10088000008842F20F71884202D901200349088092
:1008900010BD0000170000201600002014000020EA
:1008A00070B505460C460CB10C2C01D91F2070BD4B
:1008B000022C05D1284601F069F808B11D20F6E7A1
:1008C000601E0149085CF2E74E5C00002DE9FC4126
:1008D0000026FE480068FE490968884201D1BDE84B
:1008E000FC81FA480068FA490860FA48007828B1A3
:1008F000F9480078C0F10700C0B201E0F64800787E
:100900000446F6480078F8B9F548007818B1F4487C
:100910000078022801D1FF2580E2F1480078042800
:1009200002D1F04E355D79E2ED480078062802D11B
:10093000ED4E355D72E2EA480078082802D1EB4EB0
:10094000355D6BE2002569E2E948007808B90025C9
:1009500064E2E848007848B1E7480068DB49096884
:10096000401A002802DDE548055D57E2E4480078BA
:1009700098B3E44800780A21B0FBF1F08DF800004C
:10098000E0480078B0FBF1F201FB12008DF80100A5
:10099000DD480078B0FBF1F08DF80200DA4800780D
:1009A000B0FBF1F201FB12008DF80300042C04D21D
:1009B0001DF80400D549085C00E000200546C54844
:1009C000007808B9012C05D0C24800780028A3D0CF
:1009D000022CA1D145F0800520E2FFE7CC48007849
:1009E000002870D00023CA48007801286DD1C9487A
:1009F00000884FF47A71B0FBF1F0C0B28DF80000BE
:100A0000C44800886421B0FBF1F00A21B0FBF1F288
:100A100001FB12008DF80100BE480088B0FBF1F028
:100A2000B0FBF1F201FB12008DF80200B94800881A
:100A3000B0FBF1F201FB12008DF80300B64800781C
:100A4000B0FBF1F08DF80400B3480078B0FBF1F290
:100A500001FB12008DF80500B0480078B0FBF1F002
:100A60008DF80600AD480078B0FBF1F201FB1200F2
:100A70008DF80700AA48007808B9032C0DD9A848BA
:100A80000078012803D1042C01D3052C05D9A448F2
:100A90000078022803D1062C01D3012000E00020B9
:100AA00003461DF8040099490D5C8A48007808B98E
:100AB000032C05D08748007800287AD0042C78D100
:100AC00045F0800575E07FE0FFE7914F3F78022F0A
:100AD00002D1944F3F7801E0934F3F7838468C4FD6
:100AE0003F78022F02D1914F3F7801E0904F3F783D
:100AF0003946874F3F78022F02D18E4F3F7801E071
:100B00008D4F3F783A460A27B0FBF7F78DF8007013
:100B10000A27B0FBF7FC07FB1C078DF801700A27BA
:100B20008DF80270B1FBF7F78DF803700A27B1FB5F
:100B3000F7FC07FB1C178DF804700A278DF8057069
:100B4000B2FBF7F78DF806700A27B2FBF7FC07FB3C
:100B50001C278DF80770724F3F780FB9012C0DD903
:100B60006F4F3F78012F03D1032C01D3042C05D9FB
:100B70006B4F3F78022F03D1062C01D3012700E0F1
:100B800000273B461DF80470DFF880C11CF80750B1
:100B9000504F3F781FB9012C08D0042C06D04D4F80
:100BA0003F782FB1022C01D0052C01D145F08005F2
:100BB00000BF43B145480068FA21B0FBF1F000F0F6
:100BC000010000B9002529E15C48007898B35B4A30
:100BD0001278082A0AD82046584A1278904202DA37
:100BE000574A125C00E00022154631E0554A12785F
:100BF00012B3554A1278514B1B781A44121B4F4BB3
:100C00001B7892FBF3F703FB1722D0B24C4A125C1D
:100C100002F07F05421C494B1B78B2FBF3F703FB44
:100C20001722D1B2464A525C02F0800282B17CB1F6
:100C300045F080050CE00CE0434A127822443F4B1B
:100C40001B7892FBF3F703FB1722D0B23C4A155CEA
:100C5000E4E03E480078B8BB2A4800780A21B0FB9F
:100C6000F1F08DF8000027480078B0FBF1F201FBAD
:100C700012008DF801000A208DF802002248007849
:100C8000B0FBF1F08DF803001F480078B0FBF1F2E3
:100C900001FB12008DF804000A208DF805002C4895
:100CA0000078B0FBF1F08DF8060029480078B0FB21
:100CB000F1F201FB12008DF807001DF80400134942
:100CC0000D5C0448007845E053E00000000000207F
:100CD000E00000204F0000203C0000204C000020DD
:100CE0004D000020C1560000C9560000D15600003A
:100CF00019000020680000206C000020580000202F
:100D0000500000201000002011000020B656000006
:100D1000730000207C0000207E0000207F00002067
:100D2000740000208000002083000020810000204B
:100D30008400002082000020850000205200002056
:100D4000280100204E000020530000201800002041
:100D50001200002018B9012C08D0042C06D04148FC
:100D60000078E8B3022C01D0052C57D145F080055E
:100D700054E03D4800884FF47A71B0FBF1F0C0B206
:100D80008DF80000384800886421B0FBF1F00A219A
:100D9000B0FBF1F201FB12008DF80100324800882F
:100DA000B0FBF1F0B0FBF1F201FB12008DF8020094
:100DB0002D480088B0FBF1F201FB12008DF8030012
:100DC0002A480078B0FBF1F08DF80400274800783D
:100DD000B0FBF1F201FB12008DF80500244800E0A1
:100DE0001CE00078B0FBF1F08DF806002048007898
:100DF000B0FBF1F201FB12008DF807001DF80400B2
:100E00001C490D5C1748007808B9032C04D015481C
:100E1000007818B1042C01D145F08005002206218C
:100E2000222000F0EDFC0F48007818B1284603F0AE
:100E30002FF905462A460521222000F0E1FC0E4844
:100E4000017801208840C2B20621222000F0D8FC9F
:100E500009480078401C00F007000749087000BFEF
:100E60003DE500004F000020140000201600002087
:100E700017000020B65600003C00002010B587483F
:100E8000007801286DD18648007870B985480088BF
:100E900042F20F71884201D3012003E081480088AB
:100EA000401C80B27F49088048E07D4800780128D6
:100EB00019D17D480078401C7B49087008460078AD
:100EC0000C283BD9012008707648008842F20F7147
:100ED000884201D3012003E072480088401C80B2A0
:100EE000704908802AE071480078401C6F490870FA
:100EF0006D4801786B480088FFF7D2FC6B49097890
:100F000088421BDA01206949087067480078401C54
:100F100065490870084600780C280FD90120087030
:100F20006048008842F20F71884201D3012003E03B
:100F30005C480088401C80B25A4908805A480178B1
:100F400058480088FFF7ACFC58490978884207DA0E
:100F50005548017853480088FFF7A2FC53490870B0
:100F60009BE04E480078022848D14D48007850B99F
:100F70004F480078401C1821B0FBF1F201FB120031
:100F80004B49087089E046480078012815D1494846
:100F90000078401C47490870084600783C287CD3FC
:100FA0000020087042480078401C1821B0FBF1F284
:100FB00001FB12003E4908706FE03F480078401C7A
:100FC0003D490870084600783C2866D30020087028
:100FD00038480078401C37490870084600783C289B
:100FE0005BD30020087032480078401C1821B0FB09
:100FF000F1F201FB12002E4908704EE027480078FC
:1010000003284AD12648007850B92C480078401C63
:101010001821B0FBF1F201FB12002849087039E0F9
:101020001F480078012815D125480078401C244924
:101030000870084600783C282CD3002008701F4810
:101040000078401C1821B0FBF1F201FB12001B4993
:1010500008701FE01B480078401C1A4908700846B9
:1010600000783C2816D30020087015480078401CF2
:1010700013490870084600783C280BD300200870FC
:101080000E480078401C1821B0FBF1F201FB120061
:101090000A49087001200C49087010BD7300002037
:1010A000740000207C0000207E0000207F000020D3
:1010B00080000020810000208200002083000020AA
:1010C0008400002085000020860000201848008849
:1010D000184908801848007818490870184800789E
:1010E000184908701848007818490870184800789E
:1010F000184908701848007818490870184800788E
:10110000184908701848007818490870184800787D
:101110001849087000201849087001201749087004
:101120000020174908701748006817490860704781
:10113000140000207C000020160000207E0000200B
:10114000170000207F0000201000002080000020F9
:1011500011000020810000201200002082000020E9
:101160001A000020830000201B00002084000020C3
:101170001C00002085000020860000207300002055
:1011800074000020000000207800002000200249A8
:101190000870024908707047730000207400002036
:1011A00010B53C4804783C4800883C4908803C48DD
:1011B00000783C4908703C4800783C4908703C483D
:1011C00000783C4908703C4800783C4908703C482D
:1011D00000783C4908703C4800783C4908703C481D
:1011E00000783C4908703C4800783C4908703C480D
:1011F000007828B101203B4908703BA004F09EF81C
:10120000012C0ED13CA004F099F82848027825481A
:1012100001782248008804F01DF83BA004F08EF805
:1012200026E0022C0ED139A004F088F82548027877
:10123000224801781F48007804F090F832A004F0AA
:101240007DF815E0032C13D134A004F077F823487F
:101250000278204801781D48007804F07FF8214981
:10126000097809B132A100E033A1084604F066F81C
:10127000FFF78CFF032C02D1FFF74EF902E00020AC
:101280002F490870022C01D0012C02D100202D49D9
:10129000087010BD730000207C00002014000020A6
:1012A0007E000020160000207F0000201700002094
:1012B000800000201000002081000020110000208C
:1012C0008200002012000020830000201A0000206D
:1012D000840000201B000020850000201C0000204E
:1012E000860000201D000020234556543A414C4101
:1012F000524D5F4F4E0D0A00234556543A4544491E
:1013000054204441544520000D0A00002345565402
:101310003A454449542054494D45200023455654EC
:101320003A4544495420414C41524D2000000000B0
:10133000204F4E0D0A000000204F46460D0A0000C7
:101340001F0000202000002010B51F4800781F4912
:101350000978884207D11D4800781D4909788842DC
:1013600001D1012000E0002004461CB900201949E9
:10137000087010BD1748007800B1FAE70120154940
:1013800008701548007800B1F3E714480078C8B930
:1013900000F024FD0120114908701148006811492E
:1013A000086011A003F0CAFF13A003F0C7FF0848AC
:1013B0000278064801780448007803F0CFFF11A0B6
:1013C00003F0BCFF00BFD4E7100000201100002094
:1013D00012000020200000209C0000201E000020A1
:1013E0000000002028000020234556543A414C417B
:1013F000524D0D0A00000000234556543A45515500
:10140000414C20000D0A000010B50120074908706A
:1014100007480078C0EB001080000649086002F021
:101420008DFF05A003F030FA10BD00003D00002044
:101430003E000020400000204F4E000010B5044642
:1014400000201249087012490860CCB11148008888
:10145000401C1049088000F0C1FC0F48006800F2F1
:10146000DC500E4908604FF41670FFF71BF901209D
:10147000FFF7ECF802F062FF09A003F005FA04E0C0
:1014800002F05CFF08A003F0FFF910BD3D00002052
:101490004000002044000020000000202C0000201C
:1014A000444F4E45000000004F46460010B50A4824
:1014B000007800B910BD0948006820B107480068ED
:1014C000401E064908600548006810B90120FFF772
:1014D000B5FF00BFEEE700003D0000204000002007
:1014E000D0F8003412F0010F14BF0B438B43C0F847
:1014F000003412F0020FD0F8202414BF114322EA66
:101500000101C0F8201470472DE9F00301264FF0C7
:10151000000C0325C2F3411706FA0CF40C4211D05B
:10152000D0F8C48F4FEA4C0405FA04F928EA0908F8
:10153000C0F8C48FD0F8C48F07FA04F448EA040452
:10154000C0F8C44F0CF1010C0CF0FF0CBCF1080FFB
:10155000E2D3D0F800C512F0010F14BF4CEA010C21
:101560002CEA010CC0F800C5D0F804C512F0020F37
:1015700014BF4CEA010C2CEA010CC0F804C5D0F8E9
:1015800008C512F0040F14BF4CEA010C2CEA010C40
:10159000C0F808C5D0F818C512F0080F14BF4CEAFF
:1015A000010C2CEA010CC0F818C512F0100FD0F88D
:1015B0003C2514BF0A438A43C0F83C25D0F80C25CB
:1015C00013F0010F14BF0A438A43C0F80C25D0F86A
:1015D000102513F0020F14BF0A438A43C0F81025E8
:1015E000D0F8142513F0040F14BF0A438A43C0F83F
:1015F0001425D0F81C2513F0080F14BF0A438A43A2
:10160000C0F81C25D0F8442513F4007F14BF0A430A
:101610008A43C0F84425D0F8402513F4407F14BF16
:101620000A438A43C0F84025D0F82825002B0CBF78
:10163000114322EA0101C0F82815BDE8F003704704
:101640000E4AC0F30741D26E01238B401A420C4A66
:101650001ABF02EBC101496852F83110020AD1F8F1
:101660002C354FF00F0C0CFA02FC00F00F0023EAAF
:101670000C0390401843C1F82C05704700E00F4060
:10168000045E000050F82100704730B50C46054656
:101690000022FFF725FF21462846BDE830400823F9
:1016A0000122FFF731BF30B50C4605460823012261
:1016B000FFF72AFF21462846BDE830400122FFF708
:1016C0000FBF30B50C4605460222FFF709FF214641
:1016D0002846BDE8304009230122FFF715BF30B589
:1016E0000C4605460222FFF7FBFE21462846BDE8D0
:1016F000304008230122FFF707BF30B50C460546EE
:101700000222FFF7EDFE21462846BDE830400823BF
:101710000122FFF7F9BE40F82120704770B5064658
:101720000D4600240EE00120A040304040B10021D1
:10173000204600F041F9114951F8240003F0D6F891
:10174000601CC4B2082CEED305F0010010B10CA04F
:1017500003F0CCF805F0020070B10B48007840B1FE
:101760000A48006841F2883108440949086002F0DB
:10177000E5FD08A003F0BAF870BD0000C00000202D
:101780005553455231000000680000200000002041
:101790006C000020555345523200000070B50446DD
:1017A0000D4600BF154800F05DF80028FAD1002270
:1017B0002146124800F098F82946104800F05CF8DD
:1017C00007210E4800F054F800BF0C4800F04AF81A
:1017D0000028FAD101222146084800F085F80721A7
:1017E000064800F045F800BF044800F03BF8002828
:1017F000FAD1024800F03EF8C0B270BD00000240CD
:1018000070B504460E46154600BF154800F02AF88C
:101810000028FAD100222146114800F065F831462F
:101820000F4800F029F803210D4800F021F800BF0F
:101830000B4800F017F80028FAD12946084800F0B4
:101840001BF80521064800F013F800BF044800F01B
:1018500009F80028FAD1024800F010F8C0B270BDB3
:1018600000000240406810F0010018BF01207047DE
:10187000416070478068704781607047406810F031
:10188000010F05D110F0120F1CBF00F01C007047B3
:1018900000207047036A43F010030362002A14BF5C
:1018A0000E4A0F4A02EB820301EB830302EB820232
:1018B00092005B1EB3FBF2F2521EC260D0F8C02F42
:1018C00012F0010F08BF7047064A1144521CB1FBC9
:1018D000F2F1491E41F08001C1607047801A060094
:1018E000A08601007F47370142EA4101016070474D
:1018F0001649042804BF086840F4803018D0052831
:1019000004BF086840F4003012D0062812D00F2817
:1019100015D0102838BF7047103800F01F01012281
:1019200002FA01F142090A4850F8220001607047AA
:1019300008607047086840F48020086070474FF0E6
:10194000E020016941F002010161704724ED00E0EF
:10195000505F000010B5FEF7AAFC002818BF012058
:1019600010BD0000084A20F00303D2581368800716
:10197000C00E4FF0FF0C0CFA00FC23EA0C0301FA36
:1019800000F0184310607047B45E000001464FF449
:10199000C870B1FBF0F200FB121040B101F003007F
:1019A00038B96420B1FBF0F200FB121008B101203D
:1019B00070470020FCE7000070B504460D46072C78
:1019C00000D970BD7CB95748007860B100205549F6
:1019D00008700120544908700020FEF737FE53A01C
:1019E00003F0ACFCEDE75648007818B155480068A4
:1019F00055490860ECB935B151480078002801D04C
:101A0000FFF7CEFB8CE04E48007810B9FFF75EFB85
:101A100086E04B480078032808D249480078401CEB
:101A20004749087000204949087079E0FFF7AEFB8C
:101A300076E0012C0DD14248007850B1434800783F
:101A4000401C0321B0FBF1F201FB12003F4908707A
:101A500066E0022C05D13A48007810B1FFF70EFA83
:101A60005EE0032C05D13648007810B1FFF798FBF3
:101A700056E0042C0AD13248007838B9344800784E
:101A8000401C00F001003249087049E0052C0DD1DE
:101A90002B48007850B92F48007880F001002D497C
:101AA0000870284800682C49086039E0062C29D1C4
:101AB0002348007830BB85B12848007880F00100C9
:101AC000264908702648007880F0010024490870F3
:101AD00002F0BCFE02F032FC22E02048007880F0E8
:101AE00001001E4908700846007838B11D4800788A
:101AF00020B11C480078401EC0B200E000201A4906
:101B000008700DE0072C0BD10D48007840B917483C
:101B1000007818B10020FFF791FC01E0FFF774FC9A
:101B200000BF4EE71E0000201F0000202345565432
:101B30003A414C41524D5F4F46460D0A00000000AD
:101B400073000020000000207800002074000020B6
:101B50001800002051000020540000204E000020FA
:101B60004F00002052000020530000203D000020C4
:101B700070B53948007810B13848007800E000208E
:101B800004463748007800B970BD364800684FF405
:101B9000FA71B0FBF1F000F0010008B144F001046B
:101BA0003148007808B144F002043048007808B1A8
:101BB00044F004042E48007830B12E4800682949CA
:101BC0000968401A002802DC2B48007808B144F06C
:101BD00008042A48006823490968401A002801DDE2
:101BE00044F010042648007808B144F02004254849
:101BF000007808B944F0400423480078082801D947
:101C000044F0800421480078012802D144F02004E7
:101C10000CE01E480078022802D144F0400405E0A0
:101C20001A480078042801D144F08004184800784C
:101C300008B104F00704E043C5B2164800788542B5
:101C400008D0144805702A4601211820FFF7D8FD56
:101C500002F060FE00BF97E77100002072000020D4
:101C60004C000020000000201D0000201E0000206D
:101C700034000020380000207300002030000020D5
:101C80004E000020190000205200002069000020B2
:101C9000500000207000002008B51E48007840B1B8
:101CA0001D48006828B11D4800881D4909888842E0
:101CB0000DDB002017490870FF211A4803F064F972
:101CC0000020FEF7C3FC01201749087008BD134827
:101CD00001880088401C114A10800F48006800EB02
:101CE000810000680090002010490880BDF80200C3
:101CF0000F490880BDF8000018B90020FEF7A6FCC7
:101D000006E0BDF80000FEF7CDFC0120FEF79EFCCA
:101D100000BFDBE79C000020900000209600002020
:101D200094000020001003409D0000209800002037
:101D30009A00002070B504460D461948007808B98D
:101D400005B104B970BD00F049F8002015490860DC
:101D5000154804601548058000201549088015497C
:101D60000880154908801549087001201449087039
:101D7000FFF792FF134800684FF47A71B0FBF1F05F
:101D8000461E3246FF21104803F013F9FF210E488A
:101D900003F002F90DA003F0D1FA00BFD2E7000072
:101DA0001E0000202C000020900000209400002045
:101DB00096000020980000209A0000209D0000203E
:101DC0009C0000200C0000200010034023455654C6
:101DD0003A4D55534943204F4E0D0A0010B50F4858
:101DE000007810B10EA003F0A9FA00200B4908708A
:101DF000104908601049088010490880104908807F
:101E000010490880FF21104803F0BEF80020FEF7BB
:101E10001DFC0220FEF702FC10BD00009C0000200B
:101E2000234556543A4D55534943204F46460D0AD3
:101E30000000000090000020940000209600002088
:101E4000980000209A0000200010034010B5294897
:101E500002F0A6FF2748401C02F0A2FF00BF254861
:101E600002F0B2FF0028FAD02248401C02F0ACFF7A
:101E70000028F4D02221204803F056F81F480068BB
:101E80004FF4FA61B0FBF1F0441E2246FF211A48DC
:101E900003F08FF80121184803F085F80121164856
:101EA00003F083F820212320FFF75CFD2320FFF7B8
:101EB0001FFD2221124803F037F8104800684FF444
:101EC0007A71B0FBF1F0441E2246FF210C4803F06A
:101ED00070F801210A4803F066F80121084803F070
:101EE00064F840212520FFF73DFD2520FFF700FD88
:101EF00010BD0000000400F0000003400C000020B2
:101F00000010034010B50A48007828B1094800784D
:101F100010B1FFF763FF10BD0748007828B100201B
:101F20000549087005A003F009FA00BFF3E70000B7
:101F30009C0000201E0000209D00002023455654D8
:101F40003A4D55534943204F46460D0A00000000C4
:101F500010B502460B46002101E0481CC1B2505C9E
:101F600018B1505C5C5CA042F7D0505C18B9585C6A
:101F700008B9012010BD0020FCE702461078302887
:101F800008DB1078392805DC5078302802DB5078DF
:101F9000392801DD00207047507830381378303B05
:101FA00003EB830300EB430008700120F3E730B537
:101FB00002460B460024002110E0505C302802DB72
:101FC000505C392801DD002030BD505C303804EB16
:101FD000840500EB450084B2481CC1B20429ECD34F
:101FE0001C800120F0E730B502460C460025002198
:101FF0001AE0505C302806DB505C392803DC505C6A
:102000003038C3B20BE0505C412806DB505C4628F8
:1020100003DC505C3738C3B201E0002030BD43EA36
:102020000510C5B2481CC1B20229E2D325700120B7
:10203000F4E730B502460B460021002410E0505C66
:10204000302802DB505C392801DD002030BD505CB7
:10205000303804EB840500EB450084B2481CC1B263
:10206000505C08B10529EAD309B1505C08B10020E1
:10207000ECE71C800120E9E72DE9F0418AB07948BE
:10208000067879480778794890F8008000257848E4
:1020900000782A2827D176484078532823D17448DD
:1020A000807845281FD17248C07854281BD17048C9
:1020B00000793A2817D16E484079412813D16C48ED
:1020C00080794C280FD16A48C07941280BD16848E3
:1020D000007A522807D16648407A4D2803D16448D7
:1020E000807A202803D000200AB0BDE8F08161A0EA
:1020F000FEF78AFB08B10020F6E75D480B30099037
:102100001CE002E00998401C0990099800782028FA
:10211000F8D009980078302804DB0998007839282D
:1021200000DC10E002A800EBC501082209A801F0BC
:102130004DFF08B90020D7E7681CC5B209980078A0
:1021400008B1032DDDD300BF0DB90020CCE70998FD
:10215000089000240AE0684600EB440108A801F05A
:1021600065FF08B90020BFE7601CC4B2AC42F2DBD7
:1021700002E00898401C0890089800782028F8D0C1
:102180000898007808B10020AEE7002457E002A9C3
:1021900001EBC4003BA1FFF7DBFE30B13DF81400BA
:1021A000182802D21DF8146047E002A901EBC40010
:1021B00036A1FFF7CDFEA0B902A901EBC40034A1FE
:1021C000FFF7C6FE68B902A901EBC40032A1FFF710
:1021D000BFFE30B902A901EBC40031A1FFF7B8FE80
:1021E00030B13DF814003C2802D21DF8147024E0F0
:1021F00002A901EBC4002CA1FFF7AAFEA0B902A915
:1022000001EBC40029A1FFF7A3FE68B902A901EB05
:10221000C40028A1FFF79CFE30B902A901EBC4005D
:1022200026A1FFF795FE30B13DF814003C2802D2FC
:102230001DF8148001E0002056E7601CC4B2AC42D7
:10224000A5DB0848067008480770084880F8008039
:1022500001201C4908701CA003F070F8FEF75CF91F
:10226000012041E71A0000201B0000201C00002074
:10227000E80000202A5345543A414C41524D204F2A
:1022800046460000484F5552000000004D494E00A0
:102290004D494E55000000004D494E555400000078
:1022A0004D494E5554450000534543005345434F57
:1022B000000000005345434F4E0000005345434F7C
:1022C0004E4400001D000020234556543A414C4125
:1022D000524D5F4F4E0D0A007FB50025FC48006847
:1022E0006430FC490860FC48007828B1FBA003F08A
:1022F00025F8012501F06DBAFBA0FEF785FA78B14B
:10230000FCA003F01BF8FC480278FC480178FC486C
:10231000008802F09FFFFBA003F010F80125E9E719
:10232000F9A0FEF771FA80B1F9A003F007F8E848C8
:1023300000684FF47A71B0FBF1F4204603F064F8C2
:10234000F0A002F0FBFF0125D4E7F3A0FEF75CFA52
:10235000002847D00C20F24908700020F14908708D
:10236000F149087040F2EA70E54908800620E34927
:1023700008700420E04908700C20EC490870012026
:10238000EB4908700020EB490870EB490870EB49F5
:102390000870EB490870EB490870EB4908700120A0
:1023A000EA4908700020EA490870EA490870EA49D9
:1023B0000870E5490870E9490870E9490870E94979
:1023C0000870E94908702820E84908700020E849A9
:1023D0000860E8490880FEF739F9E7A002F0AEFF8F
:1023E000012587E7E6A0FEF70FFA78B1C1A002F059
:1023F000A5FFCD480278CB480178C948007802F0A3
:10240000ADFFC0A002F09AFF012573E7DFA0FEF741
:10241000FBF9A8B1B7A002F091FFC6480278C44802
:102420000178C248007802F099FFC349097809B1E0
:10243000D9A100E0DAA1084602F080FF012559E7A2
:10244000D9A0FEF7E1F950B1C349097809B1D9A182
:1024500000E0DBA1084602F071FF01254AE7DBA09E
:10246000FEF7D2F950B1BA49097809B1DAA100E012
:10247000DCA1084602F062FF01253BE7DCA0FEF785
:10248000C3F950B1B349097809B1DCA100E0DFA17B
:10249000084602F053FF01252CE7E0A0FEF7B4F94F
:1024A00010B3E1A002F04AFFAF49097809B1E1A1F8
:1024B00000E0E1A1084602F041FFAC48007802F0DC
:1024C00073FEDBA002F03AFFA948006802F09CFF0F
:1024D000D7A002F033FFA748008802F095FF89A03B
:1024E00002F02CFF012505E7D5A0FEF78DF970B1AC
:1024F00001209A4908707648006842F21071084439
:10250000D34908609CA002F019FF0125F2E601F012
:10251000BBFC20B198A002F011FF0125EAE601F012
:102520007BF920B194A002F009FF0125E2E601F059
:102530009FFB48B190A002F001FF00208049087085
:10254000804908700125D5E6FFF796FD20B18AA0E5
:1025500002F0F4FE0125CDE6BEA0FEF755F948B124
:1025600000207B490870C049087083A002F0E6FE95
:102570000125BFE6BDA0FEF747F990B101207449DF
:102580000870BF48007820B1BD480078401EC0B236
:1025900000E00020B449087077A002F0CFFE0125CA
:1025A000A8E6B8A0FEF730F958B1012069490870D3
:1025B00071A002F0C3FE02F049F901F0BFFE01254F
:1025C00098E6B4A0FEF720F958B1002061490870E0
:1025D00069A002F0B3FE02F039F901F0AFFE012567
:1025E00088E6B0A0FEF710F948B100205A490870FB
:1025F00061A002F0A3FE02F0A5F901257AE6ADA0E4
:10260000FEF702F948B10120534908705AA002F0C0
:1026100095FE02F097F901256CE6AAA0FEF7F4F802
:1026200048B140F25D11AB48FFF784FB52A002F0C5
:1026300085FE01255EE6A8A0FEF7E6F830B1FFF7BB
:10264000CDFB4DA002F07AFE012553E6A6A0FEF7D1
:10265000DBF858B100210846FFF7AEF9A6A002F05A
:1026600045F945A002F06AFE012543E6A4A0FEF765
:10267000CBF858B100210120FFF79EF9A4A002F089
:1026800035F93DA002F05AFE012533E6A2A0FEF77F
:10269000BBF858B100210220FFF78EF9A2A002F08A
:1026A00025F935A002F04AFE012523E69FA0FEF79A
:1026B000ABF858B100210320FFF77EF99FA002F08C
:1026C00015F92DA002F03AFE012513E63AE10000CB
:1026D0000000002030000020080000204552524F2A
:1026E00052204C454E0D0A002A4745543A44415465
:1026F000450000004F4B200017000020160000206E
:10270000140000200D0A00002A50494E4700000026
:1027100023504F4E472000002A525354000000001F
:102720001000002011000020120000201A000020DC
:102730001B0000201C0000201D0000201E000020A7
:102740001F00002020000020710000201900002040
:102750004E0000204F0000205000002034000020D8
:1027600069000020680000203D0000203E0000209D
:1027700040000020440000204F4B0D0A00000000E4
:102780002A4745543A54494D450000002A474554CC
:102790003A414C41524D0000204F4E0D0A000000BE
:1027A000204F46460D0A00002A4745543A4D4F44F3
:1027B000450000004F4B204E494748540D0A000089
:1027C0004F4B204441590D0A000000002A47455450
:1027D0003A464F524D4154004F4B205249474854BE
:1027E0000D0A00004F4B204C4546540D0A000000D6
:1027F0002A4745543A464C49500000004F4B20466A
:102800004C4950204F4E0D0A000000004F4B20460F
:102810004C4950204F46460D0A0000002A474554B7
:102820003A464F43555300004F4B20464F435553B4
:10283000200000004F4E20004F46462000000000C0
:102840002A5345543A53594E43204F4B0000000041
:10285000380000202A5345543A464F524D415420E7
:102860004C45465400000000530000202A534554B4
:102870003A464F524D4154205249474854000000B7
:10288000520000202A5345543A464C4950204F4E9E
:10289000000000002A5345543A464C4950204F4608
:1028A000460000002A5345543A4D4F4445204441C8
:1028B000590000002A5345543A4D4F4445204E4993
:1028C000474854002A5345543A4D555349432057DD
:1028D000494E4400DA5600002A5345543A4D5553A8
:1028E00049432053544F50002A5345543A4B4559BD
:1028F0002046554E4300000046554E430000000060
:102900002A5345543A4B45592053484946540000F0
:1029100053484946540000002A5345543A4B455900
:102920002041444400000000414444002A534554DF
:102930003A4B4559205341564500000053415645F6
:1029400000000000FCA0FDF75FFF60B10021042043
:10295000FFF732F8FCA001F0C9FFAFF2E41002F07B
:10296000EDFC0125C6E4FAA0FDF74EFF60B10021A1
:102970000520FFF721F8FAA001F0B8FFAFF2082018
:1029800002F0DCFC0125B5E4F7A0FDF73DFF60B1E6
:1029900000210620FFF710F8F7A001F0A7FFAFF223
:1029A000282002F0CBFC0125A4E4F5A0FDF72CFFC4
:1029B00018B9F9A0FDF728FF90B1FB48007880F026
:1029C0000100F949087001F041FF01F0B7FCF7A0E0
:1029D00001F08CFFAFF2602002F0B0FC012589E429
:1029E000F5A0FDF711FF88B1F748007818B1002075
:1029F000FEF724FD01E0FEF707FDF4A001F076FFED
:102A0000AFF28C2002F09AFC012573E4F0A0FDF7F0
:102A1000FBFE48B101210020FEF780FEAFF2A820A6
:102A200002F08CFC012565E4EDA0FDF7EDFE48B158
:102A300002210020FEF772FEAFF2C42002F07EFCFD
:102A4000012557E4EA4800782A2835D1E84840783B
:102A5000532831D1E648807845282DD1E448C07804
:102A6000542829D1E24800793A2825D1E048407914
:102A70004C2821D1DE48807945281DD1DC48C07919
:102A8000442819D1DA48007A202815D103A9D8485A
:102A90000930FFF7A8FA78B1D548C07A60B90120AB
:102AA000D44908709DF80C00D3490870AFF2383053
:102AB00002F044FC01251DE4CD4800782A287DD190
:102AC000CB484078532879D1C9488078452875D1BA
:102AD000C748C078542871D1C54800793A286DD1CB
:102AE000C3484079542869D1C1488079492865D1C3
:102AF000BF48C0794D287DD1BD48007A452879D19D
:102B0000BB48407A202875D1B948807A482871D1CD
:102B1000B748C07A4F286DD1B548007B552869D198
:102B2000B348407B522865D1B148807B202861D1D1
:102B3000AF48C07B4D285DD1AD48007C492859D1B4
:102B4000AB48407C4E2855D1A948807C202851D1E3
:102B5000A748C07C53284DD1A548007D452849D1C0
:102B6000A348407D432845D1A148807D202841D1FC
:102B700003A99F481730FFF700FAF8B19C48407E40
:102B8000202837D102A99A481A30FFF7F6F9A8B1E0
:102B90009748007F20282DD101A995481D30FFF7C7
:102BA000ECF958B19248C07F40B99DF80C00182844
:102BB00020D29DF808003C281CD200E01AE09DF8C5
:102BC00004003C2816D29DF80C008C4908709DF832
:102BD00008008B4908709DF804008A49087000209D
:102BE0008949087089490870AFF2744002F0A6FB69
:102BF00001250AE47E4800782A2849D17C4840789B
:102C0000532845D17A488078452841D17848C07802
:102C100054283DD1764800793A2839D17448407912
:102C2000422835D172488079452831D17048C07921
:102C300045282DD16E48007A502829D16C48407A19
:102C4000202825D169466A480A30FFF7F2F9F8B121
:102C5000BDF800000A281BD3BDF8000041F28831FE
:102C6000884215D8FFF7BAF869480068BDF8001027
:102C70000844684908604FF41670FDF713FD012001
:102C8000FDF7E4FCAFF2105002F058FB01252AE4F6
:102C9000574800782A284DD155484078532849D1C3
:102CA00053488078452845D15148C078542841D1AF
:102CB0004F4800793A283DD14D484079462839D1CE
:102CC0004B4880794F2835D14948C079432831D1C4
:102CD0004748007A55282DD14548407A532829D1B4
:102CE0004348807A202825D1694641480B30FFF7B8
:102CF000A0F9F8B1BDF80000E0B1BDF8000063280C
:102D000018D8BDF80000444908702F48007858B121
:102D100008460078C0EB001080004049086001F0D0
:102D20000DFB3FA001F0B0FDAFF2B45002F006FB86
:102D3000012508E476E000002A5345543A4B4559F2
:102D40002044495350000000444953500000000003
:102D50002A5345543A4B45592053504545440000A9
:102D600053504545440000002A5345543A4B4559B9
:102D700020464F524D415400464F524D41540000A1
:102D80002A5345543A4B455920464F524D41545FC2
:102D90004C4F4E47000000002A5345543A4B4559CA
:102DA00020464C49500000004F000020464F524D35
:102DB00041545F4C4F4E47002A5345543A4B4559B6
:102DC00020455854000000003D00002045585400A4
:102DD0002A5345543A4B455920555345523100002A
:102DE0002A5345543A4B4559205553455232000019
:102DF000E800002071000020720000201000002078
:102E000011000020120000201F00002020000020E0
:102E1000000000202C0000203E0000204000002088
:102E20004F4E0000FDA0FDF7EFFC18B9FEA0FDF726
:102E3000EBFC38B1FEF7E8FAAFF2C46002F07EFABC
:102E4000012512E4FCA0FDF7DFFC18B9FDA0FDF799
:102E5000DBFC40B10020FEF7F1FAAFF2E46002F0D3
:102E60006DFA012511E4FA4800782A283BD1F84888
:102E70004078532837D1F6488078452833D1F44834
:102E8000C07854282FD1F24800793A282BD1F04845
:102E900040794D2827D1EE488079532823D1EC483A
:102EA000C07947281FD1EA48007A20281BD1002486
:102EB00001E0601CC4B204F10900E549085C002887
:102EC000F7D1202C05D9AFF2EC7002F037FA0125CA
:102ED00008E0DF48093001F0A1F9AFF2647002F0B8
:102EE0002DFA01253EE5DBA0FDF78EFC40B1002068
:102EF000DB490870AFF2807002F020FA012531E55D
:102F0000D8A0FDF781FC58B9DAA0FDF77DFC38B9EF
:102F1000DBA0FDF779FC18B9DCA0FDF775FC50B11A
:102F2000DD49097809B1DDA100E0DEA1084602F023
:102F300005FA012551E2DEA0FDF766FC58B9E0A0D4
:102F4000FDF762FC38B9E2A0FDF75EFC18B9E4A019
:102F5000FDF75AFC40B10120CF490870AFF2E8708C
:102F600002F0ECF9012538E2E1A0FDF74DFC58B97B
:102F7000E4A0FDF749FC38B9E6A0FDF745FC18B917
:102F8000E8A0FDF741FC40B10020C3490870AFF64E
:102F9000180002F0D3F901251FE2AD4800782A2875
:102FA0007ED1AB48407853287AD1A948807845280B
:102FB00076D1A748C078542872D1A54800793A281C
:102FC0006ED1A348407941286AD1A14880794C2824
:102FD00066D19F48C079412862D19D48007A522825
:102FE0005ED19B48407A4D287DD19948807A20282F
:102FF00079D19748C07A482875D19548007B4F28E9
:1030000071D19348407B55286DD19148807B5228DF
:1030100069D18F48C07B202865D18D48007C4D2820
:1030200061D18B48407C49285DD18948807C4E28FD
:1030300059D18748C07C202855D18548007D532828
:1030400051D18348407D45284DD18148807D43281A
:1030500049D17F48C07D202845D103A97C4818303C
:10306000FEF78BFFE0B17A48807E20283BD102A991
:1030700077481B30FEF781FF90B17548407F2028CC
:1030800031D101A972481E30FEF777FF40B1704878
:1030900090F8200020B99DF80C00182823D200E0F9
:1030A00021E09DF808003C281DD29DF804003C2832
:1030B00019D29DF80C009F4908709DF808009E49A0
:1030C00008709DF804009D49087001209C49087013
:1030D000AFF65C1002F032F99AA002F02FF9FDF77A
:1030E0001BFA012575E39BA0FDF78EFB88B100203C
:1030F000934908709B4908709B490870FDF7A6FA30
:10310000AFF68C1002F01AF998A002F017F9012519
:103110005FE34F4800782A287ED14D4840785328F5
:103120007AD14B488078452876D14948C0785428D0
:1031300072D1474800793A286ED1454840794428F1
:103140006AD143488079412866D14148C0795428E2
:1031500062D13F48007A45285ED13D48407A202818
:103160005AD13B48807A592856D13948C07A4528E7
:1031700052D13748007B41284ED13548407B5228F8
:103180004AD13348807B202846D13148C07B4D2826
:1031900042D12F48007C4F283ED12D48407C4E28FC
:1031A0003AD12B48807C542836D12948C07C482805
:1031B00032D12748007D20282ED12548407D442843
:1031C0002AD12348807D412826D12148C07D54281A
:1031D00022D11F48007E45281ED11D48407E202850
:1031E0001AD169461A481A30FEF7E1FEA0B1184814
:1031F000807F202810D103A915481F30FEF7BDFE9F
:1032000050B1134890F82100202805D102A9104898
:103210002230FEF7B2FEB3E0E0E000002A464F4362
:1032200055533A4F4E0000002A464F4355533A53E8
:1032300054415254000000002A464F4355533A4F20
:10324000464600002A464F4355533A53544F5000C8
:10325000E80000202A5345543A4D5347000000002F
:10326000520000202A4745543A444953504C415992
:10327000000000002A4745543A44495350000000DA
:103280002A4745543A444953504C00002A47455474
:103290003A444953504C4100190000204F4B204FF5
:1032A0004E0D0A004F4B204F46460D0A000000000D
:1032B0002A5345543A444953504C4159204F4E00EB
:1032C0002A5345543A44495350204F4E00000000C1
:1032D0002A5345543A444953504C204F4E00000065
:1032E0002A5345543A444953504C41204F4E000014
:1032F0002A5345543A444953504C4159204F46466D
:10330000000000002A5345543A44495350204F4688
:10331000460000002A5345543A444953504C204F2C
:10332000464600002A5345543A444953504C4120E4
:103330004F4646001A0000201B0000201C00002001
:103340001D000020234556543A414C41524D5F4FD9
:103350004E0D0A002A5345543A414C41524D204FDC
:10336000464600001E0000201F0000202345565442
:103370003A414C41524D5F4F46460D0A0000000055
:1033800060B3FE4890F8240040BBBDF8000028B3AD
:103390009DF80C0010B39DF80C000C281ED89DF869
:1033A0000800D8B19DF80C10BDF80000FDF778FAC0
:1033B0009DF80810884211DBBDF80000F049088034
:1033C0009DF80C00EF4908709DF80800EE49087060
:1033D000AFF65C4001F0B2FF0125FAE1E748007862
:1033E000472810D1E548407845280CD1E34880783B
:1033F000542808D1E148C07828B9AFF6844001F0DC
:103400009DFF0125E5E1DD48007853281FD1DB4809
:10341000407854281BD1D94880784F2817D1D748F5
:10342000C078502813D1D548007980B90020D749F9
:1034300008700120D6490870FEF7D0FC0020FDF787
:1034400005F9AFF6CC4001F079FF0125C1E1CB4889
:103450000078412847D1C94840784C2843D1C74813
:10346000807841283FD1C548C07852283BD1C34815
:1034700000794D2837D1C1484079202833D1BF4841
:1034800080794F2811D1BD48C0794E280DD1BB4855
:10349000007A50B90120BF490870FDF73DF8AFF63A
:1034A000285001F04BFF012593E1B44880794F2863
:1034B00093D1B248C07946288FD1B048007A4628C7
:1034C0008BD1AE48407A002887D1B2490870AF4905
:1034D0000870AF490870FDF7B9F8AFF6645001F015
:1034E0002DFF012575E1A548007842283BD1A3486E
:1034F0004078452837D1A1488078452833D19F4866
:10350000C07850282FD19D48007920282BD19B4886
:1035100040794F280FD1994880794E280BD1974890
:10352000C07940B90120FDF791F8AFF6B45001F031
:1035300005FF01254DE1914840794F283CD18F4846
:103540008079462838D18D48C079462834D18B48B7
:10355000007A88BB0020FDF779F8AFF6E45001F05F
:10356000EDFE012535E1854800784B2825D18348BB
:103570004078452821D18148807859281DD17F483D
:10358000C078202819D17D480079312815DB7B4887
:103590000079382811DC7948407970B97749097980
:1035A000313901228A40D0B20021FEF7B7F8AFF6D8
:1035B000386001F0C3FE01250BE170480078552802
:1035C0002BD16E484078532827D16C488078452805
:1035D00023D16A48C07852281FD168480079202832
:1035E0001BD166484079312803D06448407932289D
:1035F00013D16248807980B960484079312801D17F
:10360000012000E0022001460020FEF787F8AFF617
:10361000986001F093FE0125DBE0584800785328BC
:1036200060D15648407845285CD154488078542869
:1036300058D15248C078202854D150480079542895
:1036400050D14E48407949284CD14C4880794D287A
:1036500048D14A48C079452844D14848007A2028B2
:1036600040D103A945480930FEF787FCC8B3434859
:10367000C07A3A2836D102A940480C30FEF77DFCCA
:1036800078B33E48807B3A282CD101A93B480F30C3
:10369000FEF773FC28B33948407C10BB9DF80C0042
:1036A00018281FD29DF808003C281BD29DF8040062
:1036B0003C2817D29DF80C00374908709DF8080087
:1036C000364908709DF804003549087000203049DB
:1036D000087034490870AFF6607001F02FFE0125C4
:1036E00077E0FFE725480078532872D123484078D7
:1036F00045286ED12148807854286AD11F48C07867
:10370000202866D11D480079412862D11B484079A4
:103710004C285ED11948807941285AD11748C07980
:10372000522856D11548007A4D2852D11348407A74
:1037300020284ED103A911480A30FEF71EFCB8B369
:103740000E48007B3A2844D102A90C480D30FEF700
:1037500014FC68B30948C07B50BB9DF80C001828C6
:1037600037D29DF808003C2833D29DF80C000E4952
:1037700008709DF808000D4908701AE0E800002064
:103780001400002016000020170000201E0000205A
:103790001F0000201D00002010000020110000204C
:1037A00012000020200000201A0000201B00002032
:1037B0000FE000200E49087001200E490870AFF29A
:1037C0007C4001F0BBFDFCF7A7FE0B4801F0B6FD05
:1037D000012515B909A001F0B1FD00200B490870C1
:1037E0000B4908700B49087001F0CCF87FBD000050
:1037F0001C0000201D000020782700004552524F79
:10380000522053594E5441580D0A00000600002022
:1038100008000020070000202DE9F0418AB065482B
:10382000068865480778654890F800800025644858
:1038300000782A2823D16248407853281FD1604855
:10384000807845281BD15E48C078542817D15C4841
:1038500000793A2813D15A48407944280FD1584862
:10386000807941280BD15648C079542807D1544853
:10387000007A452803D15248407A202803D00020FE
:103880000AB0BDE8F0814E480A3009901CE002E021
:103890000998401C0990099800782028F8D00998C8
:1038A0000078302804DB09980078392800DC10E023
:1038B00002A800EBC501082209A800F087FB08B99F
:1038C0000020DDE7681CC5B20998007808B1032D17
:1038D000DDD300BF0DB90020D2E70998089000247D
:1038E0000AE0684600EB440108A800F09FFB08B915
:1038F0000020C5E7601CC4B2AC42F2DB02E00898CD
:10390000401C0890089800782028F8D00898007883
:1039100008B10020B4E7002438E002A901EBC4009C
:1039200028A1FEF715FB58B13DF8140040B13DF851
:10393000140042F20F71884202D83DF8146023E06F
:1039400002A901EBC40021A1FEF702FB48B13DF83A
:10395000140030B13DF814000C2802D81DF8147082
:1039600012E002A901EBC4001AA1FEF7F1FA48B176
:103970003DF8140030B13DF814001F2802D81DF89E
:10398000148001E000207BE7601CC4B2AC42C4DBC1
:1039900039463046FCF784FF404501DA00206FE7E6
:1039A0000448068004480770044880F8008001201D
:1039B00066E7000014000020160000201700002019
:1039C000E800002059454152000000004D4F4E5480
:1039D0004800000044415445000000002DE9F05F1C
:1039E00000212220FDF7DAFE054600212220FDF706
:1039F000D5FE814603218948FDF744FEC7B205F094
:103A0000080010B109F0080080B90020844908704E
:103A100084480078B8B90120824908700021032049
:103A2000FDF7CAFF80A000F061FF0CE07C48007841
:103A3000032805D27A480078401C7949087002E0D2
:103A40000020784908704D4501D0BDE8F09F7848C6
:103A50000078854205D076480570002075490870C9
:103A60005CE07448007828B972480078401C7149BD
:103A7000087053E07048007885424FD06E48007857
:103A800020EA050A6C48007825EA000B6A480570B0
:103A9000002441E00120A040C6B20AEA060068B353
:103AA00066480068664941F8240066480078B043DB
:103AB0006449087064B96448007848B10021204620
:103AC000FDF77AFF5F48007830435E49087006E0F2
:103AD0002CB1032C03D000212046FDF76DFF032CF1
:103AE00004D05A4951F8240000F000FF022C05D1FF
:103AF0005248006800F51670554908600BEA060048
:103B000040B13CB94F480078304018B90021084610
:103B1000FDF752FF601CC4B2082CBBD300243EE06A
:103B20000120A040C6B2444800783040B0B9ACB9DA
:103B300044480078304088B9414850F824003F4953
:103B40000968081AB0F57A7F08D33E4800783043F8
:103B50003C49087001212046FDF72EFF36480078C9
:103B60003040D0B9062C18D1364800783040A0B982
:103B7000334850F8240031490968081AB0F57A7FB3
:103B80000BD33048007830432E490870012120467D
:103B9000FDF712FF2FA000F0A9FE601CC4B2082C94
:103BA000BED32548007800F0040088B92C4800787E
:103BB00070B12248006826490968884208D31F4826
:103BC0000068C8302249086001210220FDF7F4FE98
:103BD00024480078874205D02248077000202249F7
:103BE000087019E02048007828B91F480078401C68
:103BF0001D49087010E01D48007887420CD01B4812
:103C0000007820EA070819480770B8F1000F03D0C0
:103C100041460020FDF782FD00BF16E700D00340BB
:103C20009E0000208D0000205341564500000000FA
:103C3000470000204800002046000020000000202F
:103C4000680100208C0000201E000020A000002041
:103C500088000020464F524D41545F4C4F4E470064
:103C6000730000204A0000204B0000204900002083
:103C70002DE9F0418AB0704806787048077870489E
:103C800090F8008000256F4800782A2823D16D48DD
:103C9000407853281FD16B48807845281BD169484C
:103CA000C078542817D1674800793A2813D165485D
:103CB000407954280FD16348807949280BD1614855
:103CC000C0794D2807D15F48007A452803D15D4867
:103CD000407A202803D000200AB0BDE8F08159487E
:103CE0000A3009901CE002E00998401C09900998EC
:103CF00000782028F8D009980078302804DB09984B
:103D00000078392800DC10E002A800EBC501082289
:103D100009A800F05BF908B90020DDE7681CC5B20E
:103D20000998007808B1032DDDD300BF0DB900203C
:103D3000D2E70998089000240AE0684600EB4401A5
:103D400008A800F073F908B90020C5E7601CC4B2E8
:103D5000AC42F2DB02E00898401C0890089800781A
:103D60002028F8D00898007808B10020B4E7002493
:103D700057E002A901EBC40033A1FEF7E9F830B126
:103D80003DF81400182802D21DF8146047E002A97B
:103D900001EBC4002EA1FEF7DBF8A0B902A901EBEC
:103DA000C4002CA1FEF7D4F868B902A901EBC40045
:103DB0002AA1FEF7CDF830B902A901EBC40029A170
:103DC000FEF7C6F830B13DF814003C2802D21DF8C9
:103DD000147024E002A901EBC40024A1FEF7B8F896
:103DE000A0B902A901EBC40021A1FEF7B1F868B99E
:103DF00002A901EBC40020A1FEF7AAF830B902A97C
:103E000001EBC4001EA1FEF7A3F830B13DF8140089
:103E10003C2802D21DF8148001E000205CE7601C01
:103E2000C4B2AC42A5DB04480670044807700448DD
:103E300080F8008001204FE71000002011000020D2
:103E400012000020E8000020484F555200000000FA
:103E50004D494E004D494E55000000004D494E550C
:103E6000540000004D494E55544500005345430051
:103E70005345434F000000005345434F4E000000A0
:103E80005345434F4E44000038B503244E48007854
:103E90002A282FD14C48407853282BD14A48807883
:103EA000452827D14848C078542823D1464800796E
:103EB0003A281FD14448407957281BD1424880797D
:103EC000452817D14048C079412813D13E48007A8F
:103ED00054280FD13C48407A48280BD13A48807A80
:103EE000452807D13848C07A522803D13648007B8C
:103EF000202801D0002038BD694633480D30FEF738
:103F00003CF808B90020F6E72F48C07B202851D1A3
:103F10002D48007C53280CD12B48407C552808D1D3
:103F20002948807C4E2804D12748C07C08B9012448
:103F300042E02548007C522810D12348407C41288B
:103F40000CD12148807C492808D11F48C07C4E28CC
:103F500004D11D48007D08B902242DE01A48007CD8
:103F600048280CD11848407C4F2808D11648807C3E
:103F7000542804D11448C07C08B904241CE0124819
:103F8000007C432814D11048407C4C2810D10E48A6
:103F9000807C4F280CD10C48C07C552808D10A4899
:103FA000007D442804D10848407D08B9032403E07B
:103FB0000020A0E700209EE721469DF8000001F0C8
:103FC00047FA012097E70000E800002070B503469B
:103FD0000C46002102E01868401C18601868007840
:103FE0002028F8D008E01868067808464D1CE9B289
:103FF00026541868401C18601868007830B118689A
:104000000078202802D0501E8842ECD8186800782A
:1040100028B118680078202801D0002070BD002049
:10402000605409B10120F9E70020F7E730B50246F6
:104030000B460021002402E01068401C106010684C
:1040400000782028F8D00CE010680078303804EBB5
:10405000840500EB450084B21068401C1060481CC9
:10406000C1B210680078302805DB10680078392864
:1040700001DC0429E8D331B11068007828B1106858
:104080000078202801D0002030BD1C800120FBE7F3
:10409000014601F0800001F001020AB140F0080081
:1040A00001F008020AB140F0010001F002020AB179
:1040B00040F0100001F010020AB140F0020001F0DF
:1040C00004020AB140F0200001F020020AB140F0E1
:1040D000040001F040020AB140F0400070470000C7
:1040E00010B50A4800F05CFE00BF084800F06CFE06
:1040F0000028FAD003210648FDF7C7FA0A23012257
:1041000003210348FDF700FA10BD0000080800F085
:1041100000D0034010B51F4800F042FE1E4800F0DA
:104120003FFE00BF1B4800F04FFE0028FAD01A489F
:1041300000F04AFE0028F5D01848FDF781FA18482B
:10414000FDF77EFA04211748FDF7C9FA0821154842
:10415000FDF7B7FA0122144801681448FDF79AFBED
:10416000FF220C212220FDF74BFB00220D212220F3
:10417000FDF746FB00220E212220FDF741FB002225
:1041800003211820FDF73CFBFF2201211820FDF739
:1041900037FB10BD002000F0010800F0020801000C
:1041A000020C0100005000400C0000200000024002
:1041B00010B5164800F0F4FD154800F0F1FD00BF01
:1041C000124800F001FE0028FAD0114800F0FCFD72
:1041D0000028F5D00120FDF733FA40F20140FDF749
:1041E0002FFA03214FF04020FDF787FA60234FF4A8
:1041F000E13208480168084800F093FF5021064862
:1042000000F0C8FF1520FDF773FB10BD001800F08B
:10421000000800F00C00002000C0004070B505460A
:10422000002418E028782E2809D144B1601E1849CE
:10423000085C40F08001601E154A11540AE028789D
:10424000144908552878FCF74BFA2146621CD4B271
:104250000F4A50546D1C287808B1202CE2D30E4828
:1042600004700E48007818B114B1601EC0B200E0AE
:1042700000200B4908700B48007808B1C82001E005
:104280004FF4FA700849096808440849086070BD8D
:104290002801002048010020520000204E0000208C
:1042A0005300002051000020000000205400002096
:1042B00010B51C48007808B1C82001E04FF4FA702E
:1042C000044619480078082805D918480068184994
:1042D0000968884200D210BD14480068204414497F
:1042E00008601448007870B11348007828B90E4867
:1042F0000078401E1049087010E00F480078401EFA
:104300000D4908700AE00C480078401C06490978FD
:10431000B0FBF1F201FB12000749087000F00EF843
:1043200000BFD8E75100002052000020000000200C
:10433000540000204E000020530000202DE9FC41D5
:104340000026FAA000F0FAFFFB480078002826D1EA
:10435000FA48007818B1F9480078022803D1F8A08B
:1043600000F0ECFF6AE2F5480078042803D1F8A0D9
:1043700000F0E4FF62E2F1480078062803D1F8A0DB
:1043800000F0DCFF5AE2ED480078082803D1F8A0DD
:1043900000F0D4FF52E2FAA000F0D0FF4EE2FC4859
:1043A000007818B9F6A000F0C9FF47E2F948007894
:1043B00000287CD0F8480068FA21B0FBF1F000F04A
:1043C000010080F00105F3480078012871D1F3481D
:1043D00000888900B0FBF1F00A21B0FBF1F201FB8B
:1043E000120030308DF80000EC4800886421B0FBEA
:1043F000F1F00A21B0FBF1F201FB120030308DF830
:104400000100E6480088B0FBF1F0B0FBF1F201FBDF
:10441000120030308DF80200E0480088B0FBF1F265
:1044200001FB120030308DF80300DD480078B0FB4E
:10443000F1F03030C0B28DF80400D9480078B0FBFC
:10444000F1F201FB120030308DF80500D5480078FC
:10445000B0FBF1F03030C0B28DF80600D1480078E2
:10446000B0FBF1F201FB120030308DF80700082696
:10447000002D1BD0002417E0CB48007808B9032C8E
:104480000DD9C9480078012803D1042C01D3052C8B
:1044900005D9C5480078022804D1062C02D35F2034
:1044A0000DF80400601CC4B2082CE5D371E085E06F
:1044B000FFE7B84B1B78022B02D1BC4B1B7801E005
:1044C000BB4B1B781846B34B1B78022B02D1B94B60
:1044D0001B7801E0B84B1B781946AE4B1B78022BBA
:1044E00002D1B64B1B7801E0B54B1B781A460A2364
:1044F000B0FBF3F33033DBB28DF800300A23B0FBAE
:10450000F3F703FB170330338DF801305F238DF889
:1045100002300A23B1FBF3F33033DBB28DF8033002
:104520000A23B1FBF3F703FB171330338DF8043084
:104530005F238DF805300A23B2FBF3F33033DBB28F
:104540008DF806300A23B2FBF3F703FB1723303351
:104550008DF807301226DDB1002417E0924B1B784E
:104560000BB9012C0DD9904B1B78012B03D1032CD7
:1045700001D3042C05D98C4B1B78022B04D1062CBB
:1045800002D35F230DF80430631CDCB2082CE5D3A2
:1045900000BF002406E01DF804108A4800F0B6FDB4
:1045A000601CC4B2082CF6D387A000F0C7FE3046CA
:1045B00000F0AEFE85A000F0C1FE3FE18448007827
:1045C000A8B18448006874490968401A00280EDDC3
:1045D000002406E08048015D7A4800F097FD601CE9
:1045E000C4B2082CF6D35CA000F0A8FE26E17B48FC
:1045F000007858B17A48007800F0D6FD7948007804
:1046000000F0D2FD78A000F099FE17E1794800781B
:10461000002870D0002461E076480078082818D877
:10462000254674480078854202DA7348405D00E010
:104630005F200DF804006F480078854247DA6F4824
:10464000405D00F0800050B30120A040C0B206439E
:104650003DE06B48007818B36A490978654A1278DA
:104660001144091B634A127891FBF2F302FB131108
:10467000CDB26149495D0DF80410691C5D4A12789C
:10468000B1FBF2F302FB1311C8B244B15B49095C00
:1046900001F0800119B10121A140C9B20E4316E019
:1046A0005848007820445349097890FBF1F201FB07
:1046B0001200C5B25048405D0DF804004F48405DFF
:1046C00000F0800018B10120A040C0B206431DF8E0
:1046D00004103C4800F01AFD601CC4B2082C9BD3A7
:1046E00039A000F02BFE304600F012FE37A000F09B
:1046F00025FEA3E0FFE744480078A8B938480078D1
:1047000000F052FD41A000F019FE3648007800F09C
:104710004BFD3EA000F012FE3D48007800F044FD45
:104720003CA000F00BFE89E078E0000023455654E1
:104730003A444953502000004C0000204D00002016
:1047400038383838383838382046460D0A000000E6
:1047500037303931303031312030300D0A0000002F
:104760005F4A49414E47534A2030300D0A0000004D
:104770005F5F55315F305F5F2030380D0A00000009
:104780005F5F5F5F5F5F5F5F2030300D0A0000009A
:104790001900002073000020000000207C00002091
:1047A0007E0000207F000020740000208000002098
:1047B000830000208100002084000020820000206F
:1047C0008500002000C00040200000000D0A00000D
:1047D000680000206C0000206000002050000020D5
:1047E00010000020110000205F5F5F5F2030320D5D
:1047F0000A0000005200002048010020280100208B
:104800004E00002053000020180000205F00000030
:10481000120000202031320D0A00000008480088F4
:1048200000F0DCFC0748007800F0BEFC0648007889
:1048300000F0BAFCAFF2C00000F080FDBDE8FC81E2
:1048400014000020160000201700002010B50549B4
:10485000097809B104A100E007A1084600F06EFD47
:1048600010BD00004F000020234556543A464C49E5
:1048700050204F4E0D0A0000234556543A464C49ED
:1048800050204F46460D0A0010B504460FA000F018
:1048900055FD204600F052FD0FA000F04FFD0F48DF
:1048A000007800F081FC0CA000F048FD0C48006886
:1048B00000F0AAFD08A000F041FD0A48008800F0C1
:1048C000A3FD09A000F03AFD10BD00002345565499
:1048D0003A464F4355532000200000003E00002080
:1048E00040000020440000200D0A000010B50446DE
:1048F00004A000F023FD204600F020FD04A000F0FD
:104900001DFD10BD234556543A4B4559200000006B
:104910000D0A000010B506A000F010FD0749097847
:10492000C943C8B200F0F4FC05A000F007FD10BDBB
:10493000234556543A4C45442000000070000020A6
:104940000D0A000010B50549097809B104A100E07D
:1049500008A1084600F0F2FC10BD00005000002045
:10496000234556543A4D4F4445204E494748540D2F
:104970000A000000234556543A4D4F444520444117
:10498000590D0A0010B50A4800683230094908601C
:10499000FFF7D4FCFFF7BEFFFFF758FF0649097881
:1049A00009B106A100E006A10846FFF76DFF10BDA2
:1049B00000000020300000203D0000204F4E00008D
:1049C0004F46460070B53748007800B170BD364894
:1049D0000068B0F5FA7F02D2002500244EE032488C
:1049E0000068B0F57A7F02D20125FF2446E02E4808
:1049F000006840F2DC51884202D2022500243DE0EA
:104A000029480068B0F5FA6F02D20325FF2435E08B
:104A10002548006840F6B831884202D204250024B7
:104A20002CE02148006840F6AC51884202D20525AE
:104A3000FF2423E01C48006841F29411884202D20E
:104A4000062500241AE01848006841F2883188429F
:104A500002D20725FF2411E01348006841F270716B
:104A6000884202D20825FF2408E001200D49087081
:104A700000200E490870FFF761FCA7E70C4800789A
:104A800085420CD00A48057008480470224601216E
:104A90001820FCF7B5FEFFF751FCFFF73BFF00BF06
:104AA00094E700004C00002000000020700000206F
:104AB0004D0000202DE9F003AF4D02462868AF4BB2
:104AC0001840A0F18053B3F5A02359D002F0380963
:104AD000DFF8AC82C2F38414B9F1100F25D0B9F11C
:104AE000300F04BF47F230504FF400130DD04FF099
:104AF0003800904304BF4FF40040C30105D012F0CA
:104B0000380F1CBF0020034613D09E4F12F4605F85
:104B10004FF0000618BF00222CD057F83240444511
:104B20007DD307EBC2025268E1E000234046152422
:104B3000EBE7A4F10900122822D29348D5F87CC0F3
:104B40004FF04C7350F824002CF01C0C072CA8BF1D
:104B50004CF0100CC5F87CC02E6D4FF4002C16F4F0
:104B6000807FD2D1BCF1010C0AD02E6D16F4807F6B
:104B7000F8D0CAE712F0380F18BFB9F1100F04D0FF
:104B8000BDE8F0034FF000007047C2F30268DFF8A1
:104B9000FCC14FF0000257F83290E14503D307EB18
:104BA000C202526803E0521C062AF4D33246C5F80A
:104BB000C020D5F8B020DFF8D8C102EA0C0242F0DC
:104BC0000042C5F8B020DFF8CCC1A4F109024C1EA8
:104BD0005CF828C0A444BCFBF1FCD5F8B010194324
:104BE000C5F8B01008EBC80101EB41046A4902EBBB
:104BF000420201EBC40101EB82046468C5F8644120
:104C0000D5F864416FF0FF0808EB0C2C44EA0C0C5B
:104C1000C5F864C151F82210D5F8602100E061E0C8
:104C200002F400021143C5F86011D5F86011D5F8FF
:104C30006021C1F38921C2F30904D5F86421C2F3CC
:104C4000042202F1010CD5F8642102F01F02521C6B
:104C5000B0FBF2F04A09C2F100084443424301EBC1
:104C6000481104EB5212484302EB9020B0FBFCF0D9
:104C700041080846002257F832C0844503D307EBA9
:104C8000C200466802E0521C062AF4D3C5F8C06090
:104C9000D5F8600110F4000F1DBFD5F8B00040F04A
:104CA0008040C5F8B000D5F8600104BF40F40000B2
:104CB000C5F860014FF40040D5F8682112F0010FEB
:104CC00002D1401E0028F7DC002808BF002148D090
:104CD000D5F8B000184340F0010040F01040C5F88E
:104CE000B0003EE0521C062AFFF417AF3246C5F86A
:104CF000C020D5F8602122F40002C5F86021D5F863
:104D0000B020DFF898C002EA0C0242F00042C5F879
:104D1000B020002908BF4FF0000C0AD0B0FBF1FC16
:104D2000BCF1000F18BFACF1010C0CF10101B0FB9C
:104D3000F1F10846002257F83240844203D307EBD2
:104D4000C200466802E0521C062AF4D3C5F8C060CF
:104D5000D5F8B00043EA8C22104340F00040C5F87B
:104D6000B000D5F8B00020F47000C5F8B000BDE880
:104D7000F00308467047000000E00F400000FF709D
:104D80000024F400C4610000A85F000040787D01A9
:104D900000FC0FE0A05F000014600000FF0300EFC4
:104DA000C0F307230749C0B2194401F07043C1F3AF
:104DB000130143EA411141EA800040F000700122F2
:104DC0000260704700E60F40C0F307220849C0B2F6
:104DD000114401F07042C1F3130142EA411141EA6A
:104DE000800040F000700068002818BF0120704764
:104DF00000EA0F404FF0E020016941F00501016138
:104E000070474FF0E020016941F0020101617047F5
:104E10004FF0E021401E4861704700000E480068D6
:104E2000401C0D490860084600680521B0FBF1F2FE
:104E300001FB120010B901200849087006480068FB
:104E40004FF47A71B0FBF1F201FB120010B90120AE
:104E50000349087070470000000000200400002093
:104E6000050000200448006840F470000249086012
:104E7000024803490860704788ED00E00024F40010
:104E8000E400002010B501210E4800F08CF80E4817
:104E9000007888B10D48007880F001000B49087057
:104EA0000846007808B1202000E0002002462021BA
:104EB0000748FCF730FC04E0002220210448FCF7FE
:104EC0002AFC10BD00000340210000202200002029
:104ED0000010064010B501210F4800F064F80F489B
:104EE000007820B9FF210C4800F04EF810BD0C48A6
:104EF000008810B9FCF7D0FEF8E70A480088401C8B
:104F0000084908800846008805490988884201DB6D
:104F1000FCF7C2FE00BFE9E7001003409C00002040
:104F20009A0000209800002010B4C26822F001020C
:104F300022F48072C2600A0E0260114A1268114B9C
:104F400002EA030CACF18054CBB2C1F30722B4F5F2
:104F5000202407D043F40071416042F40071816065
:104F600010BC70474FF4704C0CEA1114234343F407
:104F7000007343600CEA1121114341F40071EEE724
:104F800000E00F400000FF70C26840F201131940BA
:104F900022EA0101C1607047C26840F20113194062
:104FA0001143C1607047416270478269114381615A
:104FB000704711F0FF0F18BF826211F47F4F18BFC6
:104FC000C262704770B50121454800F0E7F8054618
:104FD0002946434800F0DCF87AE0414800F08EF8BA
:104FE000C4B20D2C01D00A2C0BD13E48007840B140
:104FF00000203D493B4A1278885401203B49087003
:1050000066E03A480078002858D1202C01DA092CB3
:1050100054D1344800783F2850D2324909780929C0
:1050200025D3314909782A2921D12F494978532993
:105030001DD12D498978452919D12B49C978542981
:1050400015D1294909793A2911D1274949794D2999
:105050000DD125498979532909D12349C97947298E
:1050600005D12149097A202901D1012100E000213F
:105070000846092C00D1202430B9612C04DB7A2C9D
:1050800002DCA4F12001CCB2202C0AD11549097808
:1050900039B114490978491E134A515C202900D1BD
:1050A00030B1104A11784A1C0E4B1A700E4A5454F3
:1050B0000F49096864310F4A116009E00B48007814
:1050C00030B9202C01DA092C02D101200A490870DC
:1050D000034800F021F800287FF47FAF70BD000086
:1050E00000C0004006000020E8000020070000206B
:1050F000000000203000002008000020816911F02D
:10510000100F0CBF00684FF0FF307047826912F03B
:10511000200FFBD1016070478069012121EA101046
:105120007047D0F818C01CF0080FFAD1D0F82CC086
:105130002CF0100CC0F82CC0D0F830C02CF0010CB2
:105140002CF4407CC0F830C0D0F830C0B1EB021F66
:1051500034BF4CF0200C2CF0200CC0F830C038BF0D
:105160005208C900B1FBF2F1491C49088A094262A0
:1051700001F03F018162C36200218161C16A41F097
:105180001001C162016B40F20132114301637047AB
:1051900041647047826B114381637047002914BFDB
:1051A000006CC06B7047000070B504460A20B4FB69
:1051B000F0F03030C5B229460748FFF7A7FF0A20B4
:1051C000B4FBF0F100FB114000F130052946024824
:1051D000FFF79CFF70BD000000C0004070B50446A2
:1051E0004FF47A70B4FBF0F00A21B0FBF1F201FB4E
:1051F000120000F1300529461548FFF787FF6420AB
:10520000B4FBF0F00A21B0FBF1F201FB120000F157
:10521000300529460E48FFF779FF0A20B4FBF0F06D
:105220000A21B0FBF1F201FB120000F13005294622
:105230000748FFF76BFF0A20B4FBF0F100FB1140B9
:1052400000F1300529460248FFF760FF70BD0000FD
:1052500000C000402DE9F04104460D4616462A489C
:105260000078D0B30A20B6FBF0F00A21B6FBF1F2C9
:1052700001FB126101EB810100EB4100C7B238462E
:10528000FFF792FF21A000F059F80A20B5FBF0F0DB
:105290000A21B5FBF1F201FB125101EB810100EB98
:1052A0004100C7B23846FFF77FFF18A000F046F86C
:1052B0000A20B4FBF0F00A21B0FBF1F201FB12006E
:1052C000B4FBF1F201FB124101EB810100EB410063
:1052D000C7B23846FFF768FF14E0FFE76420B4FB6D
:1052E000F0F100FB11473846FFF75EFF07A000F022
:1052F00025F82846FFF758FF04A000F01FF83046B5
:10530000FFF752FFBDE8F0814E0000202E000000A4
:1053100010B50446074800EB241001780648FFF753
:10532000F5FE04F00F00034A115C0348FFF7EEFEA0
:1053300010BD00005A5C000000C0004010B50446DB
:1053400006E014F8011B0448FFF7E0FEFBF7BEFA85
:1053500020780028F5D110BD00C000402DE9F041B3
:1053600006460C46154626480078B0B30A20B5FB21
:10537000F0F00A21B5FBF1F201FB125101EB8101C2
:1053800000EB4100C7B23846FFF70EFF1DA0FFF744
:10539000D5FF0A20B4FBF0F00A21B4FBF1F201FBC7
:1053A000124101EB810100EB4100C7B23846FFF723
:1053B000FBFE14A0FFF7C2FF0A20B6FBF0F00A21A3
:1053C000B6FBF1F201FB126101EB810100EB410040
:1053D000C7B23846FFF7E8FE0FE0FFE73046FFF7B9
:1053E000E3FE08A0FFF7AAFF2046FFF7DDFE05A0B9
:1053F000FFF7A4FF2846FFF7D7FEBDE8F0810000C5
:105400004E0000202E0000003EB50446002500BFDF
:105410000A20B4FBF0F100FB1140303029466A1C31
:10542000D5B20DF801000A20B4FBF0F40CB10A2D3E
:10543000EED307E0681EC0B205461DF80010034811
:10544000FFF764FE002DF5D13EBD000000C0004016
:105450002DE9F04106460D4600242FA7012D01D16C
:105460002FA706E0022D01D12EA702E0042D00D1C6
:105470002EA7632E00D963260A20B6FBF0F0303049
:105480002B490855085DFBF72BF92A490855601C84
:10549000C4B20A20B6FBF0F100FB116030302449A1
:1054A0000855085DFBF71CF922490855601CC4B279
:1054B00043201F490855FBF713F91E490855601C86
:1054C000C4B25F201A49085500201A490855601CCB
:1054D000C4B20AE03878164908553878FBF700F965
:1054E000144908557F1C601CC4B2387808B1082CD8
:1054F000F0D307E05F200E49085500200D490855FC
:10550000601CC4B2082CF5D308200B4908700B4866
:105510000570BDE8F0810000434C4F554400000089
:1055200053554E005241494E00000000484F540070
:105530006000002058000020680000206900002062
:105540003A493B48FFF7B6FA3A490860FEF7C8FD0A
:10555000FEF7E0FDFEF72CFEFBF762F8FCF776FCA9
:10556000344800684FF47A71B0FBF1F42046FFF73D
:105570004FFCFFF746FCFFF73DFCFCF7EBF92EA0D4
:10558000FFF7DCFE38A0FFF7D9FEFFF7FBF94CE090
:10559000FFF718FA3C48007850B13C4800683C4995
:1055A0000968401A41F28831884201D3FBF7EEFDC9
:1055B000FAF7DEFFFCF7A6FCFEF77AFEFCF7D8FA56
:1055C000FBF784F93048007878B130480068FA2158
:1055D000B0FBF1F000F001042E480078844203D0C3
:1055E0002C480470FEF7AAFE02E0FF20294908704B
:1055F0002948007820B1002027490870FEF7EEF90D
:105600002648007860B1002024490870FBF7CAF8EA
:10561000FEF794FE2248007810B122A0FFF734F97B
:105620002148007808B1FCF757FEB1E7002D3101A1
:10563000500500F10C0000200D0A53383030204E88
:105640006574776F726B20436C6F636B202D204AFB
:1056500049414E47534A20353233313730393130A2
:105660003031310D0A0000005479706520474554EF
:1056700020666F722063757272656E742073746138
:1056800074652E0D0A000000730000200000002049
:105690007800002087000020040000200500002082
:1056A0003D0000204F4E0000070000204FF04070EA
:1056B000E1EE100A70473F065B4F666D7D077F6F16
:1056C00000073F6F063F3F0606001E0677543D6DFC
:1056D0001E00003E863F000000000000EE02720146
:1056E000BC008801BC00B801BC00EE01BC00F700A2
:1056F00077014C02BC00EE01BC0000001600EE0178
:10570000DC057201BC008801BC00B801BC00EE01E0
:10571000BC00DC0077014C02BC00EE01BC00B8010B
:10572000BC00EE01BC008801BC00B801BC007201E5
:10573000BC008801BC00260177017201BC00880111
:10574000BC00B801BC00EE01BC00F70077014C02C0
:10575000BC00EE01BC0000000B00EE01DC05720194
:10576000BC008801BC00B801BC00EE01BC00DC003C
:1057700077014C02BC00EE01BC00B801BC00EE0198
:10578000BC008801BC00B801BC007201BC008801EB
:10579000BC002601EE020000BC00DC007701DC004A
:1057A000BC00C400BC00DC007701DC00BC00C4000D
:1057B000BC00DC007701F700770126017701F700D4
:1057C0007701DC007701DC00BC00C400BC00DC0019
:1057D0007701DC00BC00C400BC00DC00BC00F700AA
:1057E000BC00DC00BC00C400BC009300EE02DC0086
:1057F0007701DC00BC00C400BC00DC007701DC00E9
:10580000BC00C400BC00DC007701F7007701260172
:105810007701F7007701DC007701DC00BC00F700BE
:10582000BC00DC007701C400BC00DC00BC00000050
:105830001600DC00EE020000EE0200007701DC0042
:105840007701DC00BC00C400BC00DC007701DC0098
:10585000BC00C400BC00DC007701F7007701260122
:105860007701F7007701DC007701DC00BC00F7006E
:10587000BC00DC007701C400BC00A500BC00000037
:105880001600A500EE02F700BC00DC00BC00C4005E
:10589000BC00DC00BC00C400EE02F700BC00DC0071
:1058A000BC00C400BC00DC00BC00C400EE02F70079
:1058B000BC00DC00BC00C400BC00DC00BC00C400B8
:1058C000EE020000EE0200007701C4007701DC0068
:1058D0007701F7007701C40077014A0177012601BB
:1058E000BC004A01BC00000016004A0177014A01D1
:1058F000BC00C400BC00720177014A01BC00720107
:10590000BC00000016007201EE02000016007201D9
:1059100077014A01BC007201BC0000001600720150
:10592000BC00F700BC0000001600F70077018801FA
:10593000BC00B801BC008801BC007201BC004A0177
:105940007701260177014A0177012601BC004A014F
:10595000BC00000016004A01BC002601BC004A0140
:10596000BC002601BC004A0177012601BC00DC0016
:10597000BC0000001600DC00BC00260177012601F7
:10598000BC00F700EE020000EE020000BC00C40004
:105990007701DC007701F700770100001600C400F2
:1059A00077014A0177012601BC004A01BC000000D2
:1059B00016004A0177014A01BC00C400BC00720114
:1059C00077014A01BC007201BC00000016007201A0
:1059D000EE0200001600720177014A01BC0072015C
:1059E000BC00000016007201BC00F700BC00000003
:1059F0001600F70077018801BC00B801BC008801DF
:105A0000BC007201BC004A017701260177014A01FE
:105A10007701EE01BC0000001600EE01BC000000A2
:105A20001600EE017701260177014A017701EE01A8
:105A3000BC0000001600EE01BC0000001600EE01E4
:105A4000BC00260177014A01BC00000016004A0193
:105A5000DC050000EE0288017701B8017701EE0154
:105A600077019402BC004C02BC00000016004C02FE
:105A700077019402BC004C02BC00000016004C02EE
:105A800077019402BC004C02BC00000016004C02DE
:105A90007701B801BC00EE01BC0000001600EE0169
:105AA00077019402BC004C02BC00000016004C02BE
:105AB00077019402BC004C02BC00000016004C02AE
:105AC00077019402BC004C02BC00000016004C029E
:105AD000BC00EE017701EE01BC00B801770188013E
